:020000040800F2
:1000000000000320091800085918000859180008B2
:100010005918000859180008591800080000000075
:100020000000000000000000000000005918000857
:100030005918000800000000591800085918000855
:1000400059180008591800085918000859180008CC
:10005000591800085918000869090008B109000872
:10006000E5090008591800088D090008591800080A
:10007000591800085918000859180008591800089C
:10008000591800085918000859180008591800088C
:10009000591800085918000859180008190A0008CA
:1000A000591800085918000859180008591800086C
:1000B00059180008050900085918000859180008BF
:1000C000591800085918000859180008591800084C
:1000D000591800085918000859180008591800083C
:1000E0003D0A000859180008591800085918000856
:1000F000591800085918000859180008591800081C
:10010000591800085918000859180008591800080B
:1001100059180008591800085918000859180008FB
:1001200059180008591800085918000859180008EB
:1001300059180008591800085918000859180008DB
:1001400059180008591800085918000859180008CB
:1001500059180008591800085918000859180008BB
:1001600059180008591800085918000859180008AB
:10017000591800085918000859180008591800089B
:10018000591800085918000859180008591800088B
:10019000591800085918000859180008591800087B
:0C01A000591800085918000859180008E8
:1001AC0010B5054C237833B9044B13B10448AFF3A5
:1001BC0000800123237010BD04000020000000000B
:1001CC00A418000808B5034B1BB103490348AFF34F
:1001DC00008008BD0000000008000020A4180008E2
:1001EC0080B400AF044BDB681B0A03F0070318460E
:1001FC00BD465DF8047B704700ED00E080B483B031
:10020C0000AF0346FB7197F90730002B0BDBFB7932
:10021C0003F01F02074997F907305B09012000FA28
:10022C0002F241F8232000BF0C37BD465DF8047B79
:10023C00704700BF00E100E080B483B000AF03461C
:10024C003960FB7197F90730002B0ADB3B68DAB297
:10025C000C4997F907301201D2B20B4483F80023F2
:10026C000AE03B68DAB20849FB7903F00F03043B60
:10027C001201D2B20B441A7600BF0C37BD465DF8A2
:10028C00047B704700E100E000ED00E080B489B031
:10029C0000AFF860B9607A60FB6803F00703FB619C
:1002AC00FB69C3F10703042B28BF0423BB61FB6963
:1002BC000433062B02D9FB69033B00E000237B616E
:1002CC004FF0FF32BB6902FA03F3DA43BB681A4002
:1002DC007B699A404FF0FF317B6901FA03F3D943F4
:1002EC007B680B40134318462437BD465DF8047BEE
:1002FC007047000080B582B000AF00237B60244BB8
:10030C001B6B234A43F010031363214B1B6B03F04D
:10031C0010037B601F4B1B681E4A9B0D9B051360D3
:10032C001C4B1A681B491C4B13430B60194B5B6825
:10033C00184A23F4FF6323F007035360154BDB6863
:10034C00144A23F4FF6323F00703D360114B9B681B
:10035C00104A9B0D9B0593603C2000F035F83C2027
:10036C0000F032F83C2000F02FF8082000F02CF8B8
:10037C00012000F029F8062000F026F80C2000F0EF
:10038C0023F8022000F020F800BF0837BD4680BDDE
:10039C0000380240001002405555150080B483B05F
:1003AC0000AF084B7B6002E07B68013B7B607B68A5
:1003BC00002BF9D1002318460C37BD465DF8047BA1
:1003CC00704700BFA086010080B582B000AF034625
:1003DC00FB7100BFFFF7E2FF03465BB2002BF9DBBA
:1003EC00134B4FF080729A61114B4FF000729A616F
:1003FC000F4B4FF080629A610D4B5B690C4A23F0F6
:10040C00FF0353610A4B5A69FB79094913434B614A
:10041C00074B4FF480729A61054B4FF480729A61CE
:10042C00034B4FF080729A6100BF0837BD4680BD08
:10043C000010024080B582B000AF0346FB7100BFD4
:10044C00FFF7ACFF03465BB2002BF9DB134B4FF00D
:10045C0080729A61114B4FF000729A610F4B4FF4FE
:10046C0080629A610D4B5B690C4A23F0FF03536168
:10047C000A4B5A69FB79094913434B61074B4FF4FB
:10048C0080729A61054B4FF480729A61034B4FF066
:10049C0080729A6100BF0837BD4680BD00100240D3
:1004AC0080B500AF0120FFF78FFF00BF80BD80B586
:1004BC0000AF0220FFF788FF00BF80BD80B582B07F
:1004CC0000AF03460A46FB711346BB71FB79012B47
:1004DC0002D0022B07D00DE0BB797F33DBB218467C
:1004EC00FFF772FF06E0BB79413BDBB21846FFF722
:1004FC006BFF00BF00BF0837BD4680BD80B582B022
:10050C0000AF03463A60FB710B46BB71BA79FB79BD
:10051C0011461846FFF7D2FF06E03B685A1C3A60BA
:10052C001B781846FFF786FF3B681B78002BF4D12D
:10053C0000BF00BF0837BD4680BD000080B500AFCE
:10054C00FFF7D8FE00F030F8134B04221A70134B4F
:10055C0000221A60124A01210120FFF7CFFFFFF79A
:10056C009FFF104A03210220FFF7C8FF0D4A062106
:10057C000220FFF7C3FF00F01DFB084B1B68012B8B
:10058C0002D0022B03D005E000F0D8FA02E000F014
:10059C00F1FA00BFEFE700BF000000202C000020A4
:1005AC00BC180008C818000880B582B000AF002342
:1005BC007B60AA4B1B6BA94A43F004031363A74B44
:1005CC001B6B03F004037B60A54B1B68A44A43F42C
:1005DC00AA6343F005031360A14B5B68A04A23F0A8
:1005EC002F0353609E4BDB689D4A23F47F6323F0FB
:1005FC000F03D3609A4B9B68994A43F4AA6343F068
:10060C0005039360964B4FF43C129A61934B1B6B12
:10061C00924A43F002031363904B1B6B03F00203EB
:10062C007B60904B1B688F4A03F0FC3313608D4B3F
:10063C00DB688C4A43F00133D360884B1B6B874AD1
:10064C0043F008031363854B1B6B03F008037B60BB
:10065C00854B1B68844A23F4407323F00303136017
:10066C00814BDB68804A43F4807343F00103D36011
:10067C007A4B5B6C794A43F480435364774B5B6CE5
:10068C0003F480437B60794B9B68784A43F0010309
:10069C009360764BDB68754A43F00103D360734B70
:1006AC001B69724A43F001031361704B5B696F4A1B
:1006BC0043F0010353616E4B1B686D4A43F488533E
:1006CC0043F0110313606A4B5B68694A23F4885347
:1006DC0023F011035360664B9B68654A23F48853DF
:1006EC0023F011039360624BDB68614A43F4885337
:1006FC0043F01103D360594B1B6B584A43F008036A
:10070C001363564B1B6B03F008037B60564B1B6843
:10071C00554A23F03C031360534BDB68524A43F0B9
:10072C001403D3604D4B5B6C4C4A43F480435364CD
:10073C004A4B5B6C03F480437B604C4B9B684B4A8D
:10074C0043F030039360494B9B68484A43F4407331
:10075C009360474B1B68464A43F006031360444BB7
:10076C005B68434A23F006035360414B9B68404A45
:10077C0023F0060393603E4BDB683D4A43F00603CF
:10078C00D360364B1B6C354A43F002031364334B76
:10079C001B6C03F002037B607B685B087B60354B52
:1007AC0040F2E7329A62334B334ADA62314B012220
:1007BC00DA60FFF715FD7860002200217868FFF7FA
:1007CC0065FD034619461D20FFF736FD1D20FFF77A
:1007DC0015FD284B01221A60FFF702FD78600D21F0
:1007EC000620FFF729FD0620FFF708FDFFF7F8FCB0
:1007FC0078600E210720FFF71FFD0720FFF7FEFC96
:10080C00FFF7EEFC78600F210820FFF715FD08209C
:10081C00FFF7F4FCFFF7E4FC786011210A20FFF7E6
:10082C000BFD0A20FFF7EAFCFFF7DAFC78600022E8
:10083C0000217868FFF72AFD034619461720FFF7B9
:10084C00FBFC1720FFF7DAFCFFF7CAFC78600022EC
:10085C0000217868FFF71AFD03460FE000380240CC
:10086C000008024000040240000C02400038014025
:10087C00003C014000040040905F01001946282014
:10088C00FFF7DAFC2820FFF7B9FC00BF0837BD469C
:10089C0080BD00BF80B483B000AF78607B68DBB2F2
:1008AC003033DBB218460C37BD465DF8047B70471D
:1008BC0080B483B000AF786000BF7B685A1E7A604A
:1008CC00002BFAD100BF00BF0C37BD465DF8047B8E
:1008DC00704780B582B000AF786003E04EF2C7502D
:1008EC00FFF7E6FF7B685A1E7A60002BF6D100BF3B
:1008FC0000BF0837BD4680BD80B483B000AF002375
:10090C007B60134B1B6903F00103012B08D1104BC7
:10091C0001229A610F4B1B6801330E4A136003E0EE
:10092C000B4B4FF480329A610A4B1B680133094A16
:10093C001360094B00221A61074B1B697B607B68B3
:10094C005B087B6000BF0C37BD465DF8047B7047CD
:10095C0000000240200000200004004080B400AFE2
:10096C00054B01221A60054B01225A6100BFBD469E
:10097C005DF8047B704700BF2C000020003C014058
:10098C0080B400AF054B02221A60054B10225A614D
:10099C0000BFBD465DF8047B704700BF2C000020F3
:1009AC00003C014080B400AF094B5B6903F00203CB
:1009BC00022B04D1074B1B680133064A1360044B0E
:1009CC0002225A6100BFBD465DF8047B704700BF30
:1009DC00003C01402400002080B400AF094B5B694F
:1009EC0003F00403042B04D1074B1B680133064AA4
:1009FC001360044B04225A6100BFBD465DF8047BB2
:100A0C00704700BF003C01402800002080B400AFBC
:100A1C00054B03221A60054B4FF480725A6100BFDC
:100A2C00BD465DF8047B704730000020003C01405F
:100A3C0080B400AF054B04221A60054B4FF4805272
:100A4C005A6100BFBD465DF8047B70473000002042
:100A5C00003C014080B500AF174A01210120FFF78F
:100A6C004DFD164A03210220FFF748FD134A0621CB
:100A7C000220FFF743FDFFF71AFDFFF711FD104BA6
:100A8C0001225A610F4B1B781846FFF722FF0C4BC3
:100A9C0002225A610B4B1B781846FFF71AFF084BC2
:100AAC0004225A61074B1B781846FFF712FF044BC0
:100ABC0008225A6100BF80BDCC180008C818000875
:100ACC00000802400000002080B500AF174A012149
:100ADC000120FFF713FD164A03210220FFF70EFD3C
:100AEC00134A06210220FFF709FDFFF7E0FCFFF790
:100AFC00D7FC104B08225A610F4B1B781846FFF796
:100B0C00E8FE0C4B04225A610B4B1B781846FFF77E
:100B1C00E0FE084B02225A61074B1B781846FFF780
:100B2C00D8FE044B01225A6100BF80BDD8180008C2
:100B3C00C8180008000802400000002080B500AF73
:100B4C00094A01210120FFF7D9FC084A03210220A0
:100B5C00FFF7D4FC054A06210220FFF7CFFC044B1B
:100B6C0010225A6100BF80BDE4180008C8180008A4
:100B7C000008024080B500AF0B4A01210120FFF7AD
:100B8C00BDFC0A4B20225A61094B1B68032B02D077
:100B9C00042B03D005E0FFF75DFF02E0FFF794FFA5
:100BAC0000BF00BF80BD00BFEC1800080008024069
:100BBC003000002080B500AF00F030F800F08CFA67
:100BCC0000F0E8FC124B1B683B2B0CD1104B0022A5
:100BDC001A600F4B1B681846FFF75CFE0D4B1B6829
:100BEC0001330C4A13600B4B1B683C2B07DD094B84
:100BFC0000221A60084B1B680133074A1360064B2E
:100C0C001B68172B02DD044B00221A6000BF80BD4D
:100C1C0020000020240000202800002080B500AF18
:100C2C00C94B1B683B2B00F23B8201A252F823F00C
:100C3C002D0D0008390D0008450D0008510D000858
:100C4C005D0D0008690D0008750D0008810D000888
:100C5C008D0D0008990D0008A50D0008B10D0008B8
:100C6C00BD0D0008C90D0008D50D0008E10D0008E8
:100C7C00ED0D0008F90D0008050E0008110E000816
:100C8C001D0E0008290E0008350E0008410E000844
:100C9C004D0E0008590E0008650E0008710E000874
:100CAC007D0E0008890E0008950E0008A10E0008A4
:100CBC00AD0E0008B90E0008C50E0008D10E0008D4
:100CCC00DD0E0008E90E0008F50E0008010F000803
:100CDC000D0F0008190F0008250F0008310F000830
:100CEC00AD1000083D0F0008490F00081110000856
:100CFC001D100008291000083510000841100008CC
:100D0C004D100008591000086510000871100008FB
:100D1C007D1000088910000895100008A11000082B
:100D2C008A4A07210220FFF7E9FBB9E1884A07212B
:100D3C000220FFF7E3FBB3E1864A07210220FFF70D
:100D4C00DDFBADE1844A07210220FFF7D7FBA7E1C9
:100D5C00824A07210220FFF7D1FBA1E1804A07213B
:100D6C000220FFF7CBFB9BE17E4A07210220FFF715
:100D7C00C5FB95E17C4A07210220FFF7BFFB8FE101
:100D8C007A4A07210220FFF7B9FB89E1784A07214B
:100D9C000220FFF7B3FB83E1764A07210220FFF71D
:100DAC00ADFB7DE1744A07210220FFF7A7FB77E139
:100DBC00724A07210220FFF7A1FB71E1704A07215B
:100DCC000220FFF79BFB6BE16E4A07210220FFF725
:100DDC0095FB65E16C4A07210220FFF78FFB5FE171
:100DEC006A4A07210220FFF789FB59E1684A07216B
:100DFC000220FFF783FB53E1664A07210220FFF72D
:100E0C007DFB4DE1644A07210220FFF777FB47E1A8
:100E1C00624A07210220FFF771FB41E1604A07217A
:100E2C000220FFF76BFB3BE15E4A07210220FFF734
:100E3C0065FB35E15C4A07210220FFF75FFB2FE1E0
:100E4C005A4A07210220FFF759FB29E1584A07218A
:100E5C000220FFF753FB23E1564A07210220FFF73C
:100E6C004DFB1DE1544A07210220FFF747FB17E118
:100E7C00524A07210220FFF741FB11E1504A07219A
:100E8C000220FFF73BFB0BE14E4A07210220FFF744
:100E9C0035FB05E14C4A07210220FFF72FFBFFE051
:100EAC004A4A07210220FFF729FBF9E0484A0721AB
:100EBC000220FFF723FBF3E0464A07210220FFF74D
:100ECC001DFBEDE0444A07210220FFF717FBE7E08A
:100EDC00424A07210220FFF711FBE1E0404A0721BB
:100EEC000220FFF70BFBDBE03E4A07210220FFF755
:100EFC0005FBD5E03C4A07210220FFF7FFFACFE0C3
:100F0C003A4A07210220FFF7F9FAC9E0384A0721CB
:100F1C000220FFF7F3FAC3E0364A07210220FFF75D
:100F2C00EDFABDE0344A07210220FFF7E7FAB7E0FB
:100F3C00324A07210220FFF7E1FAB1E0304A0721DB
:100F4C000220FFF7DBFAABE020000020F4180008C9
:100F5C00F8180008FC18000800190008041900080B
:100F6C00081900080C1900081019000814190008B9
:100F7C00181900081C190008201900082419000869
:100F8C00281900082C190008301900083419000819
:100F9C00381900083C1900084019000844190008C9
:100FAC00481900084C190008501900085419000879
:100FBC00581900085C190008601900086419000829
:100FCC00681900086C1900087019000874190008D9
:100FDC00781900087C190008801900088419000889
:100FEC00881900088C190008901900089419000839
:100FFC00981900089C190008A0190008A4190008E9
:10100C00A8190008274A07210220FFF777FA47E0C2
:10101C00254A07210220FFF771FA41E0234A0721F4
:10102C000220FFF76BFA3BE0214A07210220FFF771
:10103C0065FA35E01F4A07210220FFF75FFA2FE01F
:10104C001D4A07210220FFF759FA29E01B4A072104
:10105C000220FFF753FA23E0194A07210220FFF779
:10106C004DFA1DE0174A07210220FFF747FA17E057
:10107C00154A07210220FFF741FA11E0134A072114
:10108C000220FFF73BFA0BE0114A07210220FFF781
:10109C0035FA05E00F4A07210220FFF72FFA00BFAF
:1010AC0000BF80BDAC190008B0190008B4190008C5
:1010BC00B8190008BC190008C0190008C4190008A8
:1010CC00C8190008CC190008D0190008D419000858
:1010DC00D8190008DC19000880B500AFC94B1B6893
:1010EC003B2B00F23B8201A252F823F0E9110008DD
:1010FC00F5110008011200080D1200081912000861
:10110C0025120008311200083D120008491200088F
:10111C0055120008611200086D12000879120008BF
:10112C0085120008911200089D120008A9120008EF
:10113C00B5120008C1120008CD120008D91200081F
:10114C00E5120008F1120008FD120008091300084E
:10115C0015130008211300082D130008391300087B
:10116C0045130008511300085D13000869130008AB
:10117C0075130008811300088D13000899130008DB
:10118C00A5130008B1130008BD130008C91300080B
:10119C00D5130008E1130008ED13000869150008C9
:1011AC00F913000805140008CD140008D914000820
:1011BC00E5140008F1140008FD14000809150008D6
:1011CC0015150008211500082D1500083915000803
:1011DC0045150008511500085D1500088A4A0421C0
:1011EC000220FFF78BF9B9E1884A04210220FFF7AE
:1011FC0085F9B3E1864A04210220FFF77FF9ADE1BE
:10120C00844A04210220FFF779F9A7E1824A0421DC
:10121C000220FFF773F9A1E1804A04210220FFF7B5
:10122C006DF99BE17E4A04210220FFF767F995E1F5
:10123C007C4A04210220FFF761F98FE17A4A0421EC
:10124C000220FFF75BF989E1784A04210220FFF7BD
:10125C0055F983E1764A04210220FFF74FF97DE12D
:10126C00744A04210220FFF749F977E1724A0421FC
:10127C000220FFF743F971E1704A04210220FFF7C5
:10128C003DF96BE16E4A04210220FFF737F965E165
:10129C006C4A04210220FFF731F95FE16A4A04210C
:1012AC000220FFF72BF959E1684A04210220FFF7CD
:1012BC0025F953E1664A04210220FFF71FF94DE19D
:1012CC00644A04210220FFF719F947E1624A04211C
:1012DC000220FFF713F941E1604A04210220FFF7D5
:1012EC000DF93BE15E4A04210220FFF707F935E1D5
:1012FC005C4A04210220FFF701F92FE15A4A04212C
:10130C000220FFF7FBF829E1584A04210220FFF7DD
:10131C00F5F823E1564A04210220FFF7EFF81DE10E
:10132C00544A04210220FFF7E9F817E1524A04213C
:10133C000220FFF7E3F811E1504A04210220FFF7E5
:10134C00DDF80BE14E4A04210220FFF7D7F805E146
:10135C004C4A04210220FFF7D1F8FFE04A4A04214D
:10136C000220FFF7CBF8F9E0484A04210220FFF7EE
:10137C00C5F8F3E0464A04210220FFF7BFF8EDE080
:10138C00444A04210220FFF7B9F8E7E0424A04215D
:10139C000220FFF7B3F8E1E0404A04210220FFF7F6
:1013AC00ADF8DBE03E4A04210220FFF7A7F8D5E0B8
:1013BC003C4A04210220FFF7A1F8CFE03A4A04216D
:1013CC000220FFF79BF8C9E0384A04210220FFF7FE
:1013DC0095F8C3E0364A04210220FFF78FF8BDE0F0
:1013EC00344A04210220FFF789F8B7E0324A04217D
:1013FC000220FFF783F8B1E0304A04210220FFF706
:10140C007DF8ABE024000020F4180008F818000860
:10141C00FC18000800190008041900080819000835
:10142C000C190008101900081419000818190008E4
:10143C001C19000820190008241900082819000894
:10144C002C19000830190008341900083819000844
:10145C003C190008401900084419000848190008F4
:10146C004C190008501900085419000858190008A4
:10147C005C19000860190008641900086819000854
:10148C006C19000870190008741900087819000804
:10149C007C190008801900088419000888190008B4
:1014AC008C19000890190008941900089819000864
:1014BC009C190008A0190008A4190008A819000814
:1014CC00274A04210220FFF719F847E0254A042196
:1014DC000220FFF713F841E0234A04210220FFF712
:1014EC000DF83BE0214A04210220FFF707F835E014
:1014FC001F4A04210220FFF701F82FE01D4A0421A6
:10150C000220FEF7FBFF29E01B4A04210220FEF714
:10151C00F5FF23E0194A04210220FEF7EFFF1DE03E
:10152C00174A04210220FEF7E9FF17E0154A0421AF
:10153C000220FEF7E3FF11E0134A04210220FEF71C
:10154C00DDFF0BE0114A04210220FEF7D7FF05E076
:10155C000F4A04210220FEF7D1FF00BF00BF80BD5F
:10156C00AC190008B0190008B4190008B819000823
:10157C00BC190008C0190008C4190008C8190008D3
:10158C00CC190008D0190008D4190008D819000883
:10159C00DC19000880B500AF644B1B68172B00F2F8
:1015AC00C38001A252F823F015160008211600087A
:1015BC002D160008391600084516000851160008AB
:1015CC005D160008691600087516000881160008DB
:1015DC008D16000899160008A5160008B11600080B
:1015EC00BD160008C9160008D5160008E11600083B
:1015FC00ED160008F9160008051700081117000869
:10160C001D17000829170008494A01210220FEF77E
:10161C0075FF89E0474A01210220FEF76FFF83E046
:10162C00454A01210220FEF769FF7DE0434A012172
:10163C000220FEF763FF77E0414A01210220FEF70A
:10164C005DFF71E03F4A01210220FEF757FF6BE07E
:10165C003D4A01210220FEF751FF65E03B4A012182
:10166C000220FEF74BFF5FE0394A01210220FEF712
:10167C0045FF59E0374A01210220FEF73FFF53E0B6
:10168C00354A01210220FEF739FF4DE0334A012192
:10169C000220FEF733FF47E0314A01210220FEF71A
:1016AC002DFF41E02F4A01210220FEF727FF3BE0EE
:1016BC002D4A01210220FEF721FF35E02B4A0121A2
:1016CC000220FEF71BFF2FE0294A01210220FEF722
:1016DC0015FF29E0274A01210220FEF70FFF23E026
:1016EC00254A01210220FEF709FF1DE0234A0121B2
:1016FC000220FEF703FF17E0214A01210220FEF72A
:10170C00FDFE11E01F4A01210220FEF7F7FE0BE05F
:10171C001D4A01210220FEF7F1FE05E01B4A0121C2
:10172C000220FEF7EBFE00BF00BF80BD28000020AA
:10173C00F4180008F8180008FC1800080019000834
:10174C0004190008081900080C19000810190008E1
:10175C0014190008181900081C1900082019000891
:10176C0024190008281900082C1900083019000841
:10177C0034190008381900083C19000840190008F1
:10178C0044190008481900084C19000850190008A1
:10179C0080B400AF164BD3F88830154A43F470036D
:1017AC00C2F88830134B1B68124A43F001031360D4
:1017BC00104B00229A600F4B1B680E4A23F0847367
:1017CC0023F4803313600B4B0B4A5A60094B1B6894
:1017DC00084A23F480231360064B0022DA60044B82
:1017EC004FF000629A6000BFBD465DF8047B704705
:1017FC0000ED00E000380240103000240D48854612
:10180C00FFF7C6FF0C480D490D4A002302E0D458DF
:10181C00C4500433C4188C42F9D30A4A0A4C00232E
:10182C0001E013600432A242FBD300F011F8FEF782
:10183C0085FEFEE7000003200000002004000020CD
:10184C00E81900080400002034000020FEE7000026
:10185C0070B50D4D0D4C641BA4100026A64209D189
:10186C000B4D0C4C00F018F8641BA4100026A6427B
:10187C0005D170BD55F8043B98470136EEE755F895
:10188C00043B98470136F2E7E0190008E01900081C
:10189C00E0190008E4190008F8B500BFF8BC08BC52
:1018AC009E467047F8B500BFF8BC08BC9E46704712
:1018BC00454E4E43454E4449444F20003A000000EB
:1018CC00697A71756965726461200000646572657E
:1018DC00636861200000000070617261722000007A
:1018EC00696E6963696F2000303000003031000090
:1018FC00303200003033000030340000303500004E
:10190C00303600003037000030380000303900002D
:10191C003130000031310000313200003133000031
:10192C003134000031350000313600003137000011
:10193C003138000031390000323000003231000003
:10194C0032320000323300003234000032350000F5
:10195C0032360000323700003238000032390000D5
:10196C0033300000333100003332000033330000D9
:10197C0033340000333500003336000033370000B9
:10198C0033380000333900003430000034310000AB
:10199C00343200003433000034340000343500009D
:1019AC003436000034370000343800003530000085
:1019BC00353100003532000035330000353400007D
:1019CC00353500003536000035370000353800005D
:0419DC003539000099
:0419E000D101000829
:0419E400AD01000849
:0419E80001000000FA
:0400000508001809CE
:00000001FF
